{
  "transactions": [
    {
      "hash": "0xeef0c669d75811f9cf0c7a9a07d8259986bb8844b0d3b4b1ca88f1df966d9e77",
      "transactionType": "CALL",
      "contractName": null,
      "contractAddress": "0x843ae43b40c8370dffc29ff87be38953f8bbaaec",
      "function": "mint(address)",
      "arguments": [
        "0x98A612349B056CA14d64D8FFFECE02872C42110f"
      ],
      "transaction": {
        "from": "0x98a612349b056ca14d64d8fffece02872c42110f",
        "to": "0x843ae43b40c8370dffc29ff87be38953f8bbaaec",
        "gas": "0x1a514",
        "value": "0x0",
        "input": "0x6a62784200000000000000000000000098a612349b056ca14d64d8fffece02872c42110f",
        "nonce": "0x7",
        "chainId": "0x14a34"
      },
      "additionalContracts": [],
      "isFixedGasLimit": false
    },
    {
      "hash": "0x3cfce29e78c2d9fd603b7a649ade86a4b86e7ff2c94e24970c4dc79783afeb0e",
      "transactionType": "CALL",
      "contractName": null,
      "contractAddress": "0x843ae43b40c8370dffc29ff87be38953f8bbaaec",
      "function": "mint(address)",
      "arguments": [
        "0x98A612349B056CA14d64D8FFFECE02872C42110f"
      ],
      "transaction": {
        "from": "0x98a612349b056ca14d64d8fffece02872c42110f",
        "to": "0x843ae43b40c8370dffc29ff87be38953f8bbaaec",
        "gas": "0x1316b",
        "value": "0x0",
        "input": "0x6a62784200000000000000000000000098a612349b056ca14d64d8fffece02872c42110f",
        "nonce": "0x8",
        "chainId": "0x14a34"
      },
      "additionalContracts": [],
      "isFixedGasLimit": false
    },
    {
      "hash": "0x97a8cf3a59c88758417f09355f653e7d6b5d19118fe17c8002bd9aa6139f0092",
      "transactionType": "CALL",
      "contractName": null,
      "contractAddress": "0x843ae43b40c8370dffc29ff87be38953f8bbaaec",
      "function": "approve(address,uint256)",
      "arguments": [
        "0x5336a0C2476EAdcE32C7f3C58bE809c700e4db2e",
        "1"
      ],
      "transaction": {
        "from": "0x98a612349b056ca14d64d8fffece02872c42110f",
        "to": "0x843ae43b40c8370dffc29ff87be38953f8bbaaec",
        "gas": "0x104c0",
        "value": "0x0",
        "input": "0x095ea7b30000000000000000000000005336a0c2476eadce32c7f3c58be809c700e4db2e0000000000000000000000000000000000000000000000000000000000000001",
        "nonce": "0x9",
        "chainId": "0x14a34"
      },
      "additionalContracts": [],
      "isFixedGasLimit": false
    },
    {
      "hash": "0x9c39e7ea26f506207cb63d8db0715629a0304162a1fe4a5f3b3fe18d44adb825",
      "transactionType": "CALL",
      "contractName": null,
      "contractAddress": "0x5336a0c2476eadce32c7f3c58be809c700e4db2e",
      "function": "createListing((uint256,uint8,uint24,uint24,uint16,uint16,address,address,uint48,uint48),(uint256,address,uint8,bool),(uint16,uint240),(address,uint16)[],bool,bool,bytes)",
      "arguments": [
        "(10000000000000000, 2, 1, 1, 0, 0, 0x0000000000000000000000000000000000000000, 0x0000000000000000000000000000000000000000, 1764363702, 1764968382)",
        "(1, 0x843aE43b40c8370dFFc29fF87bE38953f8BbaAec, 1, false)",
        "(0, 0)",
        "[]",
        "false",
        "false",
        "0x"
      ],
      "transaction": {
        "from": "0x98a612349b056ca14d64d8fffece02872c42110f",
        "to": "0x5336a0c2476eadce32c7f3c58be809c700e4db2e",
        "gas": "0x575b5",
        "value": "0x0",
        "input": "0xe9594c32000000000000000000000000000000000000000000000000002386f26fc10000000000000000000000000000000000000000000000000000000000000000000200000000000000000000000000000000000000000000000000000000000000010000000000000000000000000000000000000000000000000000000000000001000000000000000000000000000000000000000000000000000000000000000000000000000000000000000000000000000000000000000000000000000000000000000000000000000000000000000000000000000000000000000000000000000000000000000000000000000000000000000000000000000000000000000000000000000000000000000000000000000000000000000000000000692a0db600000000000000000000000000000000000000000000000000000000693347be0000000000000000000000000000000000000000000000000000000000000001000000000000000000000000843ae43b40c8370dffc29ff87be38953f8bbaaec000000000000000000000000000000000000000000000000000000000000000100000000000000000000000000000000000000000000000000000000000000000000000000000000000000000000000000000000000000000000000000000000000000000000000000000000000000000000000000000000000000000000000000000000000000000000000000000000000000000000000000000000000002800000000000000000000000000000000000000000000000000000000000000000000000000000000000000000000000000000000000000000000000000000000000000000000000000000000000000000000000000000000000000000000002a000000000000000000000000000000000000000000000000000000000000000000000000000000000000000000000000000000000000000000000000000000000",
        "nonce": "0xa",
        "chainId": "0x14a34"
      },
      "additionalContracts": [],
      "isFixedGasLimit": false
    },
    {
      "hash": "0xcf18e096a839d7814c42965569741341ad2f63ba3d5bdb76fc9d2cfccb5c38e8",
      "transactionType": "CALL",
      "contractName": null,
      "contractAddress": "0x843ae43b40c8370dffc29ff87be38953f8bbaaec",
      "function": "approve(address,uint256)",
      "arguments": [
        "0x5336a0C2476EAdcE32C7f3C58bE809c700e4db2e",
        "2"
      ],
      "transaction": {
        "from": "0x98a612349b056ca14d64d8fffece02872c42110f",
        "to": "0x843ae43b40c8370dffc29ff87be38953f8bbaaec",
        "gas": "0x104c0",
        "value": "0x0",
        "input": "0x095ea7b30000000000000000000000005336a0c2476eadce32c7f3c58be809c700e4db2e0000000000000000000000000000000000000000000000000000000000000002",
        "nonce": "0xb",
        "chainId": "0x14a34"
      },
      "additionalContracts": [],
      "isFixedGasLimit": false
    },
    {
      "hash": "0x6c228e1f70ec9d14ed8d19074994a70dd1d73a5dedad653e7881f665a0f15e39",
      "transactionType": "CALL",
      "contractName": null,
      "contractAddress": "0x5336a0c2476eadce32c7f3c58be809c700e4db2e",
      "function": "createListing((uint256,uint8,uint24,uint24,uint16,uint16,address,address,uint48,uint48),(uint256,address,uint8,bool),(uint16,uint240),(address,uint16)[],bool,bool,bytes)",
      "arguments": [
        "(5000000000000000, 1, 1, 1, 60, 500, 0x0000000000000000000000000000000000000000, 0x0000000000000000000000000000000000000000, 1764363702, 1764364182)",
        "(2, 0x843aE43b40c8370dFFc29fF87bE38953f8BbaAec, 1, false)",
        "(0, 0)",
        "[]",
        "false",
        "false",
        "0x"
      ],
      "transaction": {
        "from": "0x98a612349b056ca14d64d8fffece02872c42110f",
        "to": "0x5336a0c2476eadce32c7f3c58be809c700e4db2e",
        "gas": "0x4b09b",
        "value": "0x0",
        "input": "0xe9594c320000000000000000000000000000000000000000000000000011c37937e08000000000000000000000000000000000000000000000000000000000000000000100000000000000000000000000000000000000000000000000000000000000010000000000000000000000000000000000000000000000000000000000000001000000000000000000000000000000000000000000000000000000000000003c00000000000000000000000000000000000000000000000000000000000001f40000000000000000000000000000000000000000000000000000000000000000000000000000000000000000000000000000000000000000000000000000000000000000000000000000000000000000000000000000000000000000692a0db600000000000000000000000000000000000000000000000000000000692a0f960000000000000000000000000000000000000000000000000000000000000002000000000000000000000000843ae43b40c8370dffc29ff87be38953f8bbaaec000000000000000000000000000000000000000000000000000000000000000100000000000000000000000000000000000000000000000000000000000000000000000000000000000000000000000000000000000000000000000000000000000000000000000000000000000000000000000000000000000000000000000000000000000000000000000000000000000000000000000000000000000002800000000000000000000000000000000000000000000000000000000000000000000000000000000000000000000000000000000000000000000000000000000000000000000000000000000000000000000000000000000000000000000002a000000000000000000000000000000000000000000000000000000000000000000000000000000000000000000000000000000000000000000000000000000000",
        "nonce": "0xc",
        "chainId": "0x14a34"
      },
      "additionalContracts": [],
      "isFixedGasLimit": false
    }
  ],
  "receipts": [
    {
      "status": "0x1",
      "cumulativeGasUsed": "0x158369",
      "logs": [
        {
          "address": "0x843ae43b40c8370dffc29ff87be38953f8bbaaec",
          "topics": [
            "0xddf252ad1be2c89b69c2b068fc378daa952ba7f163c4a11628f55a4df523b3ef",
            "0x0000000000000000000000000000000000000000000000000000000000000000",
            "0x00000000000000000000000098a612349b056ca14d64d8fffece02872c42110f",
            "0x0000000000000000000000000000000000000000000000000000000000000001"
          ],
          "data": "0x",
          "blockHash": "0x2f9927cffed0a9f22afb41b337c822679b6f55083a9cba7d91248b29d21645db",
          "blockNumber": "0x20b5736",
          "blockTimestamp": "0x692a0d4c",
          "transactionHash": "0x97a8cf3a59c88758417f09355f653e7d6b5d19118fe17c8002bd9aa6139f0092",
          "transactionIndex": "0xa",
          "logIndex": "0x21",
          "removed": false
        }
      ],
      "logsBloom": "0x00000000000000000000040000000000000000000000000000000000000000000000000000000000000000000000000000000000000000000000000000040000000000000000000000000008000000000000000000040000000000000000000000000000020000000000000000000800000000020000000000000010000000000000000000000000000000000010000000000000000000000000000000000000000000000000000000000000000000000000000000000000000000000000000000000002000000000000000000000000000000000000000800000000000060000000000000000000000000000000000000020000000000000000000000000100",
      "type": "0x2",
      "transactionHash": "0x97a8cf3a59c88758417f09355f653e7d6b5d19118fe17c8002bd9aa6139f0092",
      "transactionIndex": "0xa",
      "blockHash": "0x2f9927cffed0a9f22afb41b337c822679b6f55083a9cba7d91248b29d21645db",
      "blockNumber": "0x20b5736",
      "gasUsed": "0x11feb",
      "effectiveGasPrice": "0x3abb6",
      "blobGasUsed": "0x79e0",
      "from": "0x98a612349b056ca14d64d8fffece02872c42110f",
      "to": "0x843ae43b40c8370dffc29ff87be38953f8bbaaec",
      "contractAddress": null,
      "daFootprintGasScalar": "0x138",
      "l1BaseFeeScalar": "0x44d",
      "l1BlobBaseFee": "0x1",
      "l1BlobBaseFeeScalar": "0xa118b",
      "l1Fee": "0x51",
      "l1GasPrice": "0x9",
      "l1GasUsed": "0x640"
    },
    {
      "status": "0x1",
      "cumulativeGasUsed": "0x166088",
      "logs": [
        {
          "address": "0x843ae43b40c8370dffc29ff87be38953f8bbaaec",
          "topics": [
            "0xddf252ad1be2c89b69c2b068fc378daa952ba7f163c4a11628f55a4df523b3ef",
            "0x0000000000000000000000000000000000000000000000000000000000000000",
            "0x00000000000000000000000098a612349b056ca14d64d8fffece02872c42110f",
            "0x0000000000000000000000000000000000000000000000000000000000000002"
          ],
          "data": "0x",
          "blockHash": "0x2f9927cffed0a9f22afb41b337c822679b6f55083a9cba7d91248b29d21645db",
          "blockNumber": "0x20b5736",
          "blockTimestamp": "0x692a0d4c",
          "transactionHash": "0x3cfce29e78c2d9fd603b7a649ade86a4b86e7ff2c94e24970c4dc79783afeb0e",
          "transactionIndex": "0xb",
          "logIndex": "0x22",
          "removed": false
        }
      ],
      "logsBloom": "0x04000000000000000000040000000000000000000000000000000000000000000000000000000000000000000000000000000000000000000000000000000000000000000000000000000008000000000000000000000000000000000000000000000000020000000000000000000800000000020000000000000010000000000000000000000000000000000010000000000000000000000000000000000000000000000000000000000100000000000000000000000000000000000000000000000002000000000000000000000000000000000000000800000000000020000000000000000000000000000000000000020000008000000000000000000100",
      "type": "0x2",
      "transactionHash": "0x3cfce29e78c2d9fd603b7a649ade86a4b86e7ff2c94e24970c4dc79783afeb0e",
      "transactionIndex": "0xb",
      "blockHash": "0x2f9927cffed0a9f22afb41b337c822679b6f55083a9cba7d91248b29d21645db",
      "blockNumber": "0x20b5736",
      "gasUsed": "0xdd1f",
      "effectiveGasPrice": "0x3abb6",
      "blobGasUsed": "0x79e0",
      "from": "0x98a612349b056ca14d64d8fffece02872c42110f",
      "to": "0x843ae43b40c8370dffc29ff87be38953f8bbaaec",
      "contractAddress": null,
      "daFootprintGasScalar": "0x138",
      "l1BaseFeeScalar": "0x44d",
      "l1BlobBaseFee": "0x1",
      "l1BlobBaseFeeScalar": "0xa118b",
      "l1Fee": "0x51",
      "l1GasPrice": "0x9",
      "l1GasUsed": "0x640"
    },
    {
      "status": "0x1",
      "cumulativeGasUsed": "0x171d50",
      "logs": [
        {
          "address": "0x843ae43b40c8370dffc29ff87be38953f8bbaaec",
          "topics": [
            "0x8c5be1e5ebec7d5bd14f71427d1e84f3dd0314c0f7b2291e5b200ac8c7c3b925",
            "0x00000000000000000000000098a612349b056ca14d64d8fffece02872c42110f",
            "0x0000000000000000000000005336a0c2476eadce32c7f3c58be809c700e4db2e",
            "0x0000000000000000000000000000000000000000000000000000000000000001"
          ],
          "data": "0x",
          "blockHash": "0x8507a6b7ce1ec751ee2c7b0e86b7c3862e9c820bf860e5afefece6c2dc31d237",
          "blockNumber": "0x20b5736",
          "blockTimestamp": "0x692a0d4c",
          "transactionHash": "0xeef0c669d75811f9cf0c7a9a07d8259986bb8844b0d3b4b1ca88f1df966d9e77",
          "transactionIndex": "0xc",
          "logIndex": "0x23",
          "removed": false
        }
      ],
      "logsBloom": "0x00000000000000000000040000000000000000000000000000000000000000000000000000000000000000000000000000000000000000000000000000240000000000000000000000000000000000000000000000040000000000000000000000000000000000000000000000000000000000020000000000000000000000000000000000000000000000000010000000000000000000000000000000000000020000000000000000000000000000000000000000000000008000000200000000000000000000000000000000000000000000000000000800000000000040000010000000000000000400000000000000020000000000000000000000000100",
      "type": "0x2",
      "transactionHash": "0xeef0c669d75811f9cf0c7a9a07d8259986bb8844b0d3b4b1ca88f1df966d9e77",
      "transactionIndex": "0xc",
      "blockHash": "0x8507a6b7ce1ec751ee2c7b0e86b7c3862e9c820bf860e5afefece6c2dc31d237",
      "blockNumber": "0x20b5736",
      "gasUsed": "0xbcc8",
      "effectiveGasPrice": "0x3abb6",
      "blobGasUsed": "0x79e0",
      "from": "0x98a612349b056ca14d64d8fffece02872c42110f",
      "to": "0x843ae43b40c8370dffc29ff87be38953f8bbaaec",
      "contractAddress": null,
      "daFootprintGasScalar": "0x138",
      "l1BaseFeeScalar": "0x44d",
      "l1BlobBaseFee": "0x1",
      "l1BlobBaseFeeScalar": "0xa118b",
      "l1Fee": "0x51",
      "l1GasPrice": "0x9",
      "l1GasUsed": "0x640"
    },
    {
      "status": "0x1",
      "cumulativeGasUsed": "0x1ad903",
      "logs": [
        {
          "address": "0x843ae43b40c8370dffc29ff87be38953f8bbaaec",
          "topics": [
            "0xddf252ad1be2c89b69c2b068fc378daa952ba7f163c4a11628f55a4df523b3ef",
            "0x00000000000000000000000098a612349b056ca14d64d8fffece02872c42110f",
            "0x0000000000000000000000005336a0c2476eadce32c7f3c58be809c700e4db2e",
            "0x0000000000000000000000000000000000000000000000000000000000000001"
          ],
          "data": "0x",
          "blockHash": "0x8507a6b7ce1ec751ee2c7b0e86b7c3862e9c820bf860e5afefece6c2dc31d237",
          "blockNumber": "0x20b5736",
          "blockTimestamp": "0x692a0d4c",
          "transactionHash": "0x6c228e1f70ec9d14ed8d19074994a70dd1d73a5dedad653e7881f665a0f15e39",
          "transactionIndex": "0xd",
          "logIndex": "0x24",
          "removed": false
        },
        {
          "address": "0x5336a0c2476eadce32c7f3c58be809c700e4db2e",
          "topics": [
            "0xa677084ea9aea69b2640d875bae622e3cf9d7c163f52d2f9d81daa1ed072c985",
            "0x0000000000000000000000000000000000000000000000000000000000000001"
          ],
          "data": "0x0000000000000000000000000000000000000000000000000000000000000000000000000000000000000000000000000000000000000000000000000000000000000000000000000000000000000000000000000000000000000000000000020000000000000000000000000000000000000000000000000000000000000001000000000000000000000000000000000000000000000000000000000000000100000000000000000000000000000000000000000000000000000000692a0db600000000000000000000000000000000000000000000000000000000693347be000000000000000000000000000000000000000000000000002386f26fc100000000000000000000000000000000000000000000000000000000000000000000000000000000000000000000000000000000000000000000000000000000000000000000000000000000000000000000000000000000000000000000000000000000000000000000000000000000000000000000000000000000000000000000",
          "blockHash": "0x8507a6b7ce1ec751ee2c7b0e86b7c3862e9c820bf860e5afefece6c2dc31d237",
          "blockNumber": "0x20b5736",
          "blockTimestamp": "0x692a0d4c",
          "transactionHash": "0x6c228e1f70ec9d14ed8d19074994a70dd1d73a5dedad653e7881f665a0f15e39",
          "transactionIndex": "0xd",
          "logIndex": "0x25",
          "removed": false
        },
        {
          "address": "0x5336a0c2476eadce32c7f3c58be809c700e4db2e",
          "topics": [
            "0xc43fa59bf811b406292f853c5888b214b0e868c12884ca93b4956648caa6938a",
            "0x0000000000000000000000000000000000000000000000000000000000000001"
          ],
          "data": "0x0000000000000000000000000000000000000000000000000000000000000001000000000000000000000000843ae43b40c8370dffc29ff87be38953f8bbaaec00000000000000000000000000000000000000000000000000000000000000010000000000000000000000000000000000000000000000000000000000000000",
          "blockHash": "0x8507a6b7ce1ec751ee2c7b0e86b7c3862e9c820bf860e5afefece6c2dc31d237",
          "blockNumber": "0x20b5736",
          "blockTimestamp": "0x692a0d4c",
          "transactionHash": "0x6c228e1f70ec9d14ed8d19074994a70dd1d73a5dedad653e7881f665a0f15e39",
          "transactionIndex": "0xd",
          "logIndex": "0x26",
          "removed": false
        }
      ],
      "logsBloom": "0x00000000000000000000040000400000000000000000000000000000000000000000000000000000000000000000000000000000000000000000000000040000000000000000000000000008000000000000000000040000000000000000000000000000000000000000000000000000000000020000000008000010000100000000000000000200000000000010000000000000000000000000000000000000000000000000000000000000000000000000000000000000008020000200000000000002000002000000000000000000000000000000000800000000000040000000000000000000400400000000000000020000000000040000000000000100",
      "type": "0x2",
      "transactionHash": "0x6c228e1f70ec9d14ed8d19074994a70dd1d73a5dedad653e7881f665a0f15e39",
      "transactionIndex": "0xd",
      "blockHash": "0x8507a6b7ce1ec751ee2c7b0e86b7c3862e9c820bf860e5afefece6c2dc31d237",
      "blockNumber": "0x20b5736",
      "gasUsed": "0x3bbb3",
      "effectiveGasPrice": "0x3abb6",
      "blobGasUsed": "0xb0b8",
      "from": "0x98a612349b056ca14d64d8fffece02872c42110f",
      "to": "0x5336a0c2476eadce32c7f3c58be809c700e4db2e",
      "contractAddress": null,
      "daFootprintGasScalar": "0x138",
      "l1BaseFeeScalar": "0x44d",
      "l1BlobBaseFee": "0x1",
      "l1BlobBaseFeeScalar": "0xa118b",
      "l1Fee": "0x77",
      "l1GasPrice": "0x9",
      "l1GasUsed": "0x91a"
    },
    {
      "status": "0x1",
      "cumulativeGasUsed": "0x1b95cb",
      "logs": [
        {
          "address": "0x843ae43b40c8370dffc29ff87be38953f8bbaaec",
          "topics": [
            "0x8c5be1e5ebec7d5bd14f71427d1e84f3dd0314c0f7b2291e5b200ac8c7c3b925",
            "0x00000000000000000000000098a612349b056ca14d64d8fffece02872c42110f",
            "0x0000000000000000000000005336a0c2476eadce32c7f3c58be809c700e4db2e",
            "0x0000000000000000000000000000000000000000000000000000000000000002"
          ],
          "data": "0x",
          "blockHash": "0x8507a6b7ce1ec751ee2c7b0e86b7c3862e9c820bf860e5afefece6c2dc31d237",
          "blockNumber": "0x20b5736",
          "blockTimestamp": "0x692a0d4c",
          "transactionHash": "0x9c39e7ea26f506207cb63d8db0715629a0304162a1fe4a5f3b3fe18d44adb825",
          "transactionIndex": "0xe",
          "logIndex": "0x27",
          "removed": false
        }
      ],
      "logsBloom": "0x04000000000000000000040000000000000000000000000000000000000000000000000000000000000000000000000000000000000000000000000000200000000000000000000000000000000000000000000000000000000000000000000000000000000000000000000000000000000000020000000000000000000000000000000000000000000000000010000000000000000000000000000000000000020000000000000000000100000000000000000000000000008000000200000000000000000000000000000000000000000000000000000800000000000000000010000000000000000400000000000000020000008000000000000000000100",
      "type": "0x2",
      "transactionHash": "0x9c39e7ea26f506207cb63d8db0715629a0304162a1fe4a5f3b3fe18d44adb825",
      "transactionIndex": "0xe",
      "blockHash": "0x8507a6b7ce1ec751ee2c7b0e86b7c3862e9c820bf860e5afefece6c2dc31d237",
      "blockNumber": "0x20b5736",
      "gasUsed": "0xbcc8",
      "effectiveGasPrice": "0x3abb6",
      "blobGasUsed": "0x79e0",
      "from": "0x98a612349b056ca14d64d8fffece02872c42110f",
      "to": "0x843ae43b40c8370dffc29ff87be38953f8bbaaec",
      "contractAddress": null,
      "daFootprintGasScalar": "0x138",
      "l1BaseFeeScalar": "0x44d",
      "l1BlobBaseFee": "0x1",
      "l1BlobBaseFeeScalar": "0xa118b",
      "l1Fee": "0x51",
      "l1GasPrice": "0x9",
      "l1GasUsed": "0x640"
    },
    {
      "status": "0x1",
      "cumulativeGasUsed": "0x1efb03",
      "logs": [
        {
          "address": "0x843ae43b40c8370dffc29ff87be38953f8bbaaec",
          "topics": [
            "0xddf252ad1be2c89b69c2b068fc378daa952ba7f163c4a11628f55a4df523b3ef",
            "0x00000000000000000000000098a612349b056ca14d64d8fffece02872c42110f",
            "0x0000000000000000000000005336a0c2476eadce32c7f3c58be809c700e4db2e",
            "0x0000000000000000000000000000000000000000000000000000000000000002"
          ],
          "data": "0x",
          "blockHash": "0x8507a6b7ce1ec751ee2c7b0e86b7c3862e9c820bf860e5afefece6c2dc31d237",
          "blockNumber": "0x20b5736",
          "blockTimestamp": "0x692a0d4c",
          "transactionHash": "0xcf18e096a839d7814c42965569741341ad2f63ba3d5bdb76fc9d2cfccb5c38e8",
          "transactionIndex": "0xf",
          "logIndex": "0x28",
          "removed": false
        },
        {
          "address": "0x5336a0c2476eadce32c7f3c58be809c700e4db2e",
          "topics": [
            "0xa677084ea9aea69b2640d875bae622e3cf9d7c163f52d2f9d81daa1ed072c985",
            "0x0000000000000000000000000000000000000000000000000000000000000002"
          ],
          "data": "0x0000000000000000000000000000000000000000000000000000000000000000000000000000000000000000000000000000000000000000000000000000000000000000000000000000000000000000000000000000000000000000000000010000000000000000000000000000000000000000000000000000000000000001000000000000000000000000000000000000000000000000000000000000000100000000000000000000000000000000000000000000000000000000692a0db600000000000000000000000000000000000000000000000000000000692a0f960000000000000000000000000000000000000000000000000011c37937e08000000000000000000000000000000000000000000000000000000000000000003c00000000000000000000000000000000000000000000000000000000000001f400000000000000000000000000000000000000000000000000000000000000000000000000000000000000000000000000000000000000000000000000000000",
          "blockHash": "0x8507a6b7ce1ec751ee2c7b0e86b7c3862e9c820bf860e5afefece6c2dc31d237",
          "blockNumber": "0x20b5736",
          "blockTimestamp": "0x692a0d4c",
          "transactionHash": "0xcf18e096a839d7814c42965569741341ad2f63ba3d5bdb76fc9d2cfccb5c38e8",
          "transactionIndex": "0xf",
          "logIndex": "0x29",
          "removed": false
        },
        {
          "address": "0x5336a0c2476eadce32c7f3c58be809c700e4db2e",
          "topics": [
            "0xc43fa59bf811b406292f853c5888b214b0e868c12884ca93b4956648caa6938a",
            "0x0000000000000000000000000000000000000000000000000000000000000002"
          ],
          "data": "0x0000000000000000000000000000000000000000000000000000000000000002000000000000000000000000843ae43b40c8370dffc29ff87be38953f8bbaaec00000000000000000000000000000000000000000000000000000000000000010000000000000000000000000000000000000000000000000000000000000000",
          "blockHash": "0x8507a6b7ce1ec751ee2c7b0e86b7c3862e9c820bf860e5afefece6c2dc31d237",
          "blockNumber": "0x20b5736",
          "blockTimestamp": "0x692a0d4c",
          "transactionHash": "0xcf18e096a839d7814c42965569741341ad2f63ba3d5bdb76fc9d2cfccb5c38e8",
          "transactionIndex": "0xf",
          "logIndex": "0x2a",
          "removed": false
        }
      ],
      "logsBloom": "0x04000000000000000000040000400000000000000000000000000000000000000000000000000000000000000000000000000000000000000000000000000000000000000000000000000008000000000000000000000000000000000000000000000000000000000000000000000000000000020000000008000010000100000000000000000200000000000010000000000000000000000000000000000000000000000000000000000100000000000000000000000000008020000200000000000002000002000000000000000000000000000000000800000000000000000000000000000000400400000000000000020000008000040000000000000100",
      "type": "0x2",
      "transactionHash": "0xcf18e096a839d7814c42965569741341ad2f63ba3d5bdb76fc9d2cfccb5c38e8",
      "transactionIndex": "0xf",
      "blockHash": "0x8507a6b7ce1ec751ee2c7b0e86b7c3862e9c820bf860e5afefece6c2dc31d237",
      "blockNumber": "0x20b5736",
      "gasUsed": "0x36538",
      "effectiveGasPrice": "0x3abb6",
      "blobGasUsed": "0xbce8",
      "from": "0x98a612349b056ca14d64d8fffece02872c42110f",
      "to": "0x5336a0c2476eadce32c7f3c58be809c700e4db2e",
      "contractAddress": null,
      "daFootprintGasScalar": "0x138",
      "l1BaseFeeScalar": "0x44d",
      "l1BlobBaseFee": "0x1",
      "l1BlobBaseFeeScalar": "0xa118b",
      "l1Fee": "0x7f",
      "l1GasPrice": "0x9",
      "l1GasUsed": "0x9ba"
    }
  ],
  "libraries": [],
  "pending": [],
  "returns": {},
  "timestamp": 1764363595147,
  "chain": 84532,
  "commit": "3af7981"
}