{
  "transactions": [
    {
      "hash": "0x42b9dce8568576b74f982964677d6cf6a4ccfe8a56881bdaf3964061d75b6ed3",
      "transactionType": "CALL",
      "contractName": null,
      "contractAddress": "0x5336a0c2476eadce32c7f3c58be809c700e4db2e",
      "function": "purchase(uint40)",
      "arguments": [
        "1"
      ],
      "transaction": {
        "from": "0xa596839d24abe8b51a224aeb3e367587c7bdf03b",
        "to": "0x5336a0c2476eadce32c7f3c58be809c700e4db2e",
        "gas": "0x2a9a0",
        "value": "0x2386f26fc10000",
        "input": "0x63e30e190000000000000000000000000000000000000000000000000000000000000001",
        "nonce": "0x1",
        "chainId": "0x14a34"
      },
      "additionalContracts": [],
      "isFixedGasLimit": false
    },
    {
      "hash": "0x44db57f32a17cecc68b3e86832302349f754b0aa8d1f89ee6b544230031b2e8c",
      "transactionType": "CALL",
      "contractName": null,
      "contractAddress": "0x5336a0c2476eadce32c7f3c58be809c700e4db2e",
      "function": "bid(uint40,bool)",
      "arguments": [
        "2",
        "false"
      ],
      "transaction": {
        "from": "0xa596839d24abe8b51a224aeb3e367587c7bdf03b",
        "to": "0x5336a0c2476eadce32c7f3c58be809c700e4db2e",
        "gas": "0x21531",
        "value": "0x11c37937e08000",
        "input": "0xe3656b5200000000000000000000000000000000000000000000000000000000000000020000000000000000000000000000000000000000000000000000000000000000",
        "nonce": "0x2",
        "chainId": "0x14a34"
      },
      "additionalContracts": [],
      "isFixedGasLimit": false
    },
    {
      "hash": "0x16c7b545313479801664d3673731d3f4ebead6b486b63431697285583b287f83",
      "transactionType": "CALL",
      "contractName": null,
      "contractAddress": "0x5336a0c2476eadce32c7f3c58be809c700e4db2e",
      "function": "bid(uint40,bool)",
      "arguments": [
        "2",
        "false"
      ],
      "transaction": {
        "from": "0x6da173b1d50f7bc5c686f8880c20378965408344",
        "to": "0x5336a0c2476eadce32c7f3c58be809c700e4db2e",
        "gas": "0x19ad7",
        "value": "0x12a6d8e1122000",
        "input": "0xe3656b5200000000000000000000000000000000000000000000000000000000000000020000000000000000000000000000000000000000000000000000000000000000",
        "nonce": "0x3f",
        "chainId": "0x14a34"
      },
      "additionalContracts": [],
      "isFixedGasLimit": false
    }
  ],
  "receipts": [
    {
      "status": "0x1",
      "cumulativeGasUsed": "0x240771",
      "logs": [
        {
          "address": "0x843ae43b40c8370dffc29ff87be38953f8bbaaec",
          "topics": [
            "0xddf252ad1be2c89b69c2b068fc378daa952ba7f163c4a11628f55a4df523b3ef",
            "0x0000000000000000000000005336a0c2476eadce32c7f3c58be809c700e4db2e",
            "0x000000000000000000000000a596839d24abe8b51a224aeb3e367587c7bdf03b",
            "0x0000000000000000000000000000000000000000000000000000000000000001"
          ],
          "data": "0x",
          "blockHash": "0xecb9d2541f7b7cef163fd5984bc62284b3f0867689f96fc703bcfe746965d9c9",
          "blockNumber": "0x20b57c6",
          "blockTimestamp": "0x692a0e6c",
          "transactionHash": "0x42b9dce8568576b74f982964677d6cf6a4ccfe8a56881bdaf3964061d75b6ed3",
          "transactionIndex": "0x1b",
          "logIndex": "0x21",
          "removed": false
        },
        {
          "address": "0x5336a0c2476eadce32c7f3c58be809c700e4db2e",
          "topics": [
            "0x0e0d473f43a9d8727e62653cce4cd80d0c870ffb83dc4c93c9db4cb8ffe7053e",
            "0x0000000000000000000000000000000000000000000000000000000000000001"
          ],
          "data": "0x0000000000000000000000000000000000000000000000000000000000000000000000000000000000000000a596839d24abe8b51a224aeb3e367587c7bdf03b0000000000000000000000000000000000000000000000000000000000000001000000000000000000000000000000000000000000000000002386f26fc10000",
          "blockHash": "0xecb9d2541f7b7cef163fd5984bc62284b3f0867689f96fc703bcfe746965d9c9",
          "blockNumber": "0x20b57c6",
          "blockTimestamp": "0x692a0e6c",
          "transactionHash": "0x42b9dce8568576b74f982964677d6cf6a4ccfe8a56881bdaf3964061d75b6ed3",
          "transactionIndex": "0x1b",
          "logIndex": "0x22",
          "removed": false
        }
      ],
      "logsBloom": "0x00000000000000000000000000400000000000000000000000000000000000000000000000000000000000000000000000000000000000000000000000040000000000000000000000000008000000000000000000040000000000000000000000000000000000020000000008000010000000020000000000000010000000000080000000000000000000000010000000000000000000000000000000000000010000000000000000000000000000000000000000000000008000000200000000000002000000000000000000000000000000000000000000000000000040000000000000000000000400000000000000020000080000040000000000000100",
      "type": "0x2",
      "transactionHash": "0x42b9dce8568576b74f982964677d6cf6a4ccfe8a56881bdaf3964061d75b6ed3",
      "transactionIndex": "0x1b",
      "blockHash": "0xecb9d2541f7b7cef163fd5984bc62284b3f0867689f96fc703bcfe746965d9c9",
      "blockNumber": "0x20b57c6",
      "gasUsed": "0x1d212",
      "effectiveGasPrice": "0x5fbbc",
      "blobGasUsed": "0x79e0",
      "from": "0xa596839d24abe8b51a224aeb3e367587c7bdf03b",
      "to": "0x5336a0c2476eadce32c7f3c58be809c700e4db2e",
      "contractAddress": null,
      "daFootprintGasScalar": "0x138",
      "l1BaseFeeScalar": "0x44d",
      "l1BlobBaseFee": "0x1",
      "l1BlobBaseFeeScalar": "0xa118b",
      "l1Fee": "0x51",
      "l1GasPrice": "0x9",
      "l1GasUsed": "0x640"
    },
    {
      "status": "0x1",
      "cumulativeGasUsed": "0x4377dd",
      "logs": [
        {
          "address": "0x5336a0c2476eadce32c7f3c58be809c700e4db2e",
          "topics": [
            "0xd12be072db02c5c389af56d30a7ef86f64b7b60048f3875c6d00fc240d2d92b6",
            "0x0000000000000000000000000000000000000000000000000000000000000002"
          ],
          "data": "0x0000000000000000000000000000000000000000000000000000000000000000000000000000000000000000a596839d24abe8b51a224aeb3e367587c7bdf03b0000000000000000000000000000000000000000000000000011c37937e08000",
          "blockHash": "0xc5e09045ad2a07f71b5a88b6cfac706d2a1407d82f18a40e92ec34e5582b7884",
          "blockNumber": "0x20b57c7",
          "blockTimestamp": "0x692a0e6e",
          "transactionHash": "0x44db57f32a17cecc68b3e86832302349f754b0aa8d1f89ee6b544230031b2e8c",
          "transactionIndex": "0x11",
          "logIndex": "0x65",
          "removed": false
        }
      ],
      "logsBloom": "0x04000000000000000000000000400000000000000000000000000000000000000000000000000000000000000000000000000000000000000000000000000000000000000000000000000000000000000000000000000000000000000000000000000000000000000000400000000000000000000000000000000000000000000000000000000000000000000000000000000000000000000000000000000000000000000000000000000100000000000000000000000000000000000000000000000000000000000000000000000000000000000000000000000000004000000000000000000000000000040000000000000000008000040000000000000100",
      "type": "0x2",
      "transactionHash": "0x44db57f32a17cecc68b3e86832302349f754b0aa8d1f89ee6b544230031b2e8c",
      "transactionIndex": "0x11",
      "blockHash": "0xc5e09045ad2a07f71b5a88b6cfac706d2a1407d82f18a40e92ec34e5582b7884",
      "blockNumber": "0x20b57c7",
      "gasUsed": "0x18206",
      "effectiveGasPrice": "0x5f719",
      "blobGasUsed": "0x79e0",
      "from": "0xa596839d24abe8b51a224aeb3e367587c7bdf03b",
      "to": "0x5336a0c2476eadce32c7f3c58be809c700e4db2e",
      "contractAddress": null,
      "daFootprintGasScalar": "0x138",
      "l1BaseFeeScalar": "0x44d",
      "l1BlobBaseFee": "0x1",
      "l1BlobBaseFeeScalar": "0xa118b",
      "l1Fee": "0x51",
      "l1GasPrice": "0x9",
      "l1GasUsed": "0x640"
    },
    {
      "status": "0x1",
      "cumulativeGasUsed": "0x55080f",
      "logs": [
        {
          "address": "0x5336a0c2476eadce32c7f3c58be809c700e4db2e",
          "topics": [
            "0xd12be072db02c5c389af56d30a7ef86f64b7b60048f3875c6d00fc240d2d92b6",
            "0x0000000000000000000000000000000000000000000000000000000000000002"
          ],
          "data": "0x00000000000000000000000000000000000000000000000000000000000000000000000000000000000000006da173b1d50f7bc5c686f8880c203789654083440000000000000000000000000000000000000000000000000012a6d8e1122000",
          "blockHash": "0x1518ba397eea1e84578edc92d52e52a3b930363d691778c596ae4f74443f934b",
          "blockNumber": "0x20b57c7",
          "blockTimestamp": "0x692a0e6e",
          "transactionHash": "0x16c7b545313479801664d3673731d3f4ebead6b486b63431697285583b287f83",
          "transactionIndex": "0x15",
          "logIndex": "0x6d",
          "removed": false
        }
      ],
      "logsBloom": "0x04000000000000000000000000400000000000000000000000000000000000000000000000000000000000000000000000000000000000000000000000000000000000000000000000000000000000000000000000000000000000000000000000000000000000000000400000000000000000000000000000000000000000000000000000000000000000000000000000000000000000000000000000000000000000000000000000000100000000000000000000000000000000000000000000000000000000000000000000000000000000000000000000000000004000000000000000000000000000040000000000000000008000040000000000000100",
      "type": "0x2",
      "transactionHash": "0x16c7b545313479801664d3673731d3f4ebead6b486b63431697285583b287f83",
      "transactionIndex": "0x15",
      "blockHash": "0x1518ba397eea1e84578edc92d52e52a3b930363d691778c596ae4f74443f934b",
      "blockNumber": "0x20b57c7",
      "gasUsed": "0x118eb",
      "effectiveGasPrice": "0x5f719",
      "blobGasUsed": "0x79e0",
      "from": "0x6da173b1d50f7bc5c686f8880c20378965408344",
      "to": "0x5336a0c2476eadce32c7f3c58be809c700e4db2e",
      "contractAddress": null,
      "daFootprintGasScalar": "0x138",
      "l1BaseFeeScalar": "0x44d",
      "l1BlobBaseFee": "0x1",
      "l1BlobBaseFeeScalar": "0xa118b",
      "l1Fee": "0x51",
      "l1GasPrice": "0x9",
      "l1GasUsed": "0x640"
    }
  ],
  "libraries": [],
  "pending": [],
  "returns": {},
  "timestamp": 1764363887007,
  "chain": 84532,
  "commit": "3af7981"
}