{
  "transactions": [
    {
      "hash": "0xdc1af38241ab3047e9d4b9fd5613abeee6135923012bec8ab3b312f19b9dee30",
      "transactionType": "CALL",
      "contractName": null,
      "contractAddress": "0xcbfbfa0abf8e300d3fd7b7c9f316054101278d2b",
      "function": "mint(address)",
      "arguments": [
        "0x98A612349B056CA14d64D8FFFECE02872C42110f"
      ],
      "transaction": {
        "from": "0x98a612349b056ca14d64d8fffece02872c42110f",
        "to": "0xcbfbfa0abf8e300d3fd7b7c9f316054101278d2b",
        "gas": "0x1a514",
        "value": "0x0",
        "input": "0x6a62784200000000000000000000000098a612349b056ca14d64d8fffece02872c42110f",
        "nonce": "0x1",
        "chainId": "0x14a34"
      },
      "additionalContracts": [],
      "isFixedGasLimit": false
    },
    {
      "hash": "0x3cb5d24ce9d870ab587d3c06feda6924182c9c51e17ce705df6f34b55c1f7ece",
      "transactionType": "CALL",
      "contractName": null,
      "contractAddress": "0xcbfbfa0abf8e300d3fd7b7c9f316054101278d2b",
      "function": "mint(address)",
      "arguments": [
        "0x98A612349B056CA14d64D8FFFECE02872C42110f"
      ],
      "transaction": {
        "from": "0x98a612349b056ca14d64d8fffece02872c42110f",
        "to": "0xcbfbfa0abf8e300d3fd7b7c9f316054101278d2b",
        "gas": "0x1316b",
        "value": "0x0",
        "input": "0x6a62784200000000000000000000000098a612349b056ca14d64d8fffece02872c42110f",
        "nonce": "0x2",
        "chainId": "0x14a34"
      },
      "additionalContracts": [],
      "isFixedGasLimit": false
    },
    {
      "hash": "0xc6de4da64842be7cd5d99130ba695ecd045495743513bb5ef2def4e1ec58badf",
      "transactionType": "CALL",
      "contractName": null,
      "contractAddress": "0xcbfbfa0abf8e300d3fd7b7c9f316054101278d2b",
      "function": "approve(address,uint256)",
      "arguments": [
        "0xfd35bF63448595377d5bc2fCB435239Ba2AFB3ea",
        "1"
      ],
      "transaction": {
        "from": "0x98a612349b056ca14d64d8fffece02872c42110f",
        "to": "0xcbfbfa0abf8e300d3fd7b7c9f316054101278d2b",
        "gas": "0x104d1",
        "value": "0x0",
        "input": "0x095ea7b3000000000000000000000000fd35bf63448595377d5bc2fcb435239ba2afb3ea0000000000000000000000000000000000000000000000000000000000000001",
        "nonce": "0x3",
        "chainId": "0x14a34"
      },
      "additionalContracts": [],
      "isFixedGasLimit": false
    },
    {
      "hash": "0x211f5cfed74ae620878a1fdd64566310d3f6051cac26abe1d8a63aad41584c71",
      "transactionType": "CALL",
      "contractName": null,
      "contractAddress": "0xfd35bf63448595377d5bc2fcb435239ba2afb3ea",
      "function": "createListing((uint256,uint8,uint24,uint24,uint16,uint16,address,address,uint48,uint48),(uint256,address,uint8,bool),(uint16,uint240),(address,uint16)[],bool,bool,bytes)",
      "arguments": [
        "(10000000000000000, 2, 1, 1, 0, 0, 0x0000000000000000000000000000000000000000, 0x0000000000000000000000000000000000000000, 1764354030, 1764958710)",
        "(1, 0xcbFbfA0ABF8E300d3fd7B7c9f316054101278D2B, 1, false)",
        "(0, 0)",
        "[]",
        "false",
        "false",
        "0x"
      ],
      "transaction": {
        "from": "0x98a612349b056ca14d64d8fffece02872c42110f",
        "to": "0xfd35bf63448595377d5bc2fcb435239ba2afb3ea",
        "gas": "0x575b5",
        "value": "0x0",
        "input": "0xe9594c32000000000000000000000000000000000000000000000000002386f26fc100000000000000000000000000000000000000000000000000000000000000000002000000000000000000000000000000000000000000000000000000000000000100000000000000000000000000000000000000000000000000000000000000010000000000000000000000000000000000000000000000000000000000000000000000000000000000000000000000000000000000000000000000000000000000000000000000000000000000000000000000000000000000000000000000000000000000000000000000000000000000000000000000000000000000000000000000000000000000000000000000000000000000000000000000006929e7ee00000000000000000000000000000000000000000000000000000000693321f60000000000000000000000000000000000000000000000000000000000000001000000000000000000000000cbfbfa0abf8e300d3fd7b7c9f316054101278d2b000000000000000000000000000000000000000000000000000000000000000100000000000000000000000000000000000000000000000000000000000000000000000000000000000000000000000000000000000000000000000000000000000000000000000000000000000000000000000000000000000000000000000000000000000000000000000000000000000000000000000000000000000002800000000000000000000000000000000000000000000000000000000000000000000000000000000000000000000000000000000000000000000000000000000000000000000000000000000000000000000000000000000000000000000002a000000000000000000000000000000000000000000000000000000000000000000000000000000000000000000000000000000000000000000000000000000000",
        "nonce": "0x4",
        "chainId": "0x14a34"
      },
      "additionalContracts": [],
      "isFixedGasLimit": false
    },
    {
      "hash": "0xd813d66dff15b319f9b4cccf067fd6da11ae437cff8adb6af6a379a07dff1c3b",
      "transactionType": "CALL",
      "contractName": null,
      "contractAddress": "0xcbfbfa0abf8e300d3fd7b7c9f316054101278d2b",
      "function": "approve(address,uint256)",
      "arguments": [
        "0xfd35bF63448595377d5bc2fCB435239Ba2AFB3ea",
        "2"
      ],
      "transaction": {
        "from": "0x98a612349b056ca14d64d8fffece02872c42110f",
        "to": "0xcbfbfa0abf8e300d3fd7b7c9f316054101278d2b",
        "gas": "0x104d1",
        "value": "0x0",
        "input": "0x095ea7b3000000000000000000000000fd35bf63448595377d5bc2fcb435239ba2afb3ea0000000000000000000000000000000000000000000000000000000000000002",
        "nonce": "0x5",
        "chainId": "0x14a34"
      },
      "additionalContracts": [],
      "isFixedGasLimit": false
    },
    {
      "hash": "0x0c2a4bfe9b977c0d4be5cf08aaa94f89b13d88a328e4ac6ffc45c5202a071ac4",
      "transactionType": "CALL",
      "contractName": null,
      "contractAddress": "0xfd35bf63448595377d5bc2fcb435239ba2afb3ea",
      "function": "createListing((uint256,uint8,uint24,uint24,uint16,uint16,address,address,uint48,uint48),(uint256,address,uint8,bool),(uint16,uint240),(address,uint16)[],bool,bool,bytes)",
      "arguments": [
        "(5000000000000000, 1, 1, 1, 60, 500, 0x0000000000000000000000000000000000000000, 0x0000000000000000000000000000000000000000, 1764354030, 1764354510)",
        "(2, 0xcbFbfA0ABF8E300d3fd7B7c9f316054101278D2B, 1, false)",
        "(0, 0)",
        "[]",
        "false",
        "false",
        "0x"
      ],
      "transaction": {
        "from": "0x98a612349b056ca14d64d8fffece02872c42110f",
        "to": "0xfd35bf63448595377d5bc2fcb435239ba2afb3ea",
        "gas": "0x4b09b",
        "value": "0x0",
        "input": "0xe9594c320000000000000000000000000000000000000000000000000011c37937e08000000000000000000000000000000000000000000000000000000000000000000100000000000000000000000000000000000000000000000000000000000000010000000000000000000000000000000000000000000000000000000000000001000000000000000000000000000000000000000000000000000000000000003c00000000000000000000000000000000000000000000000000000000000001f400000000000000000000000000000000000000000000000000000000000000000000000000000000000000000000000000000000000000000000000000000000000000000000000000000000000000000000000000000000000000006929e7ee000000000000000000000000000000000000000000000000000000006929e9ce0000000000000000000000000000000000000000000000000000000000000002000000000000000000000000cbfbfa0abf8e300d3fd7b7c9f316054101278d2b000000000000000000000000000000000000000000000000000000000000000100000000000000000000000000000000000000000000000000000000000000000000000000000000000000000000000000000000000000000000000000000000000000000000000000000000000000000000000000000000000000000000000000000000000000000000000000000000000000000000000000000000000002800000000000000000000000000000000000000000000000000000000000000000000000000000000000000000000000000000000000000000000000000000000000000000000000000000000000000000000000000000000000000000000002a000000000000000000000000000000000000000000000000000000000000000000000000000000000000000000000000000000000000000000000000000000000",
        "nonce": "0x6",
        "chainId": "0x14a34"
      },
      "additionalContracts": [],
      "isFixedGasLimit": false
    }
  ],
  "receipts": [
    {
      "status": "0x1",
      "cumulativeGasUsed": "0x9e846",
      "logs": [
        {
          "address": "0xcbfbfa0abf8e300d3fd7b7c9f316054101278d2b",
          "topics": [
            "0xddf252ad1be2c89b69c2b068fc378daa952ba7f163c4a11628f55a4df523b3ef",
            "0x0000000000000000000000000000000000000000000000000000000000000000",
            "0x00000000000000000000000098a612349b056ca14d64d8fffece02872c42110f",
            "0x0000000000000000000000000000000000000000000000000000000000000001"
          ],
          "data": "0x",
          "blockHash": "0xc51c1cc00499cd47dc095caec572783406ccbef4ae73517776f4c182d92010c2",
          "blockNumber": "0x20b4451",
          "blockTimestamp": "0x6929e782",
          "transactionHash": "0xdc1af38241ab3047e9d4b9fd5613abeee6135923012bec8ab3b312f19b9dee30",
          "transactionIndex": "0x4",
          "logIndex": "0xe",
          "removed": false
        }
      ],
      "logsBloom": "0x00000000000000000000040000000000000000000000000000000000000000000800000000000000000000000000000000000000000000000000000000040000002000000000000000000008000000000000000000040000020000000000000000000000020000000000000000000800000000000000000000000010000000000000000000000000000000000000000000000000000000000000000000000000000000000000000000000000000000000000000000000000000000000000000000000002000000000000000000000000000000000000000800000000000060000000000000000000000000000000000000000000000000000000000000000100",
      "type": "0x2",
      "transactionHash": "0xdc1af38241ab3047e9d4b9fd5613abeee6135923012bec8ab3b312f19b9dee30",
      "transactionIndex": "0x4",
      "blockHash": "0xc51c1cc00499cd47dc095caec572783406ccbef4ae73517776f4c182d92010c2",
      "blockNumber": "0x20b4451",
      "gasUsed": "0x11feb",
      "effectiveGasPrice": "0x6aa03",
      "blobGasUsed": "0x79e0",
      "from": "0x98a612349b056ca14d64d8fffece02872c42110f",
      "to": "0xcbfbfa0abf8e300d3fd7b7c9f316054101278d2b",
      "contractAddress": null,
      "daFootprintGasScalar": "0x138",
      "l1BaseFeeScalar": "0x44d",
      "l1BlobBaseFee": "0x2",
      "l1BlobBaseFeeScalar": "0xa118b",
      "l1Fee": "0x246",
      "l1GasPrice": "0x100",
      "l1GasUsed": "0x640"
    },
    {
      "status": "0x1",
      "cumulativeGasUsed": "0xac565",
      "logs": [
        {
          "address": "0xcbfbfa0abf8e300d3fd7b7c9f316054101278d2b",
          "topics": [
            "0xddf252ad1be2c89b69c2b068fc378daa952ba7f163c4a11628f55a4df523b3ef",
            "0x0000000000000000000000000000000000000000000000000000000000000000",
            "0x00000000000000000000000098a612349b056ca14d64d8fffece02872c42110f",
            "0x0000000000000000000000000000000000000000000000000000000000000002"
          ],
          "data": "0x",
          "blockHash": "0xc51c1cc00499cd47dc095caec572783406ccbef4ae73517776f4c182d92010c2",
          "blockNumber": "0x20b4451",
          "blockTimestamp": "0x6929e782",
          "transactionHash": "0x3cb5d24ce9d870ab587d3c06feda6924182c9c51e17ce705df6f34b55c1f7ece",
          "transactionIndex": "0x5",
          "logIndex": "0xf",
          "removed": false
        }
      ],
      "logsBloom": "0x04000000000000000000040000000000000000000000000000000000000000000800000000000000000000000000000000000000000000000000000000000000002000000000000000000008000000000000000000000000020000000000000000000000020000000000000000000800000000000000000000000010000000000000000000000000000000000000000000000000000000000000000000000000000000000000000000000100000000000000000000000000000000000000000000000002000000000000000000000000000000000000000800000000000020000000000000000000000000000000000000000000008000000000000000000100",
      "type": "0x2",
      "transactionHash": "0x3cb5d24ce9d870ab587d3c06feda6924182c9c51e17ce705df6f34b55c1f7ece",
      "transactionIndex": "0x5",
      "blockHash": "0xc51c1cc00499cd47dc095caec572783406ccbef4ae73517776f4c182d92010c2",
      "blockNumber": "0x20b4451",
      "gasUsed": "0xdd1f",
      "effectiveGasPrice": "0x6aa03",
      "blobGasUsed": "0x79e0",
      "from": "0x98a612349b056ca14d64d8fffece02872c42110f",
      "to": "0xcbfbfa0abf8e300d3fd7b7c9f316054101278d2b",
      "contractAddress": null,
      "daFootprintGasScalar": "0x138",
      "l1BaseFeeScalar": "0x44d",
      "l1BlobBaseFee": "0x2",
      "l1BlobBaseFeeScalar": "0xa118b",
      "l1Fee": "0x246",
      "l1GasPrice": "0x100",
      "l1GasUsed": "0x640"
    },
    {
      "status": "0x1",
      "cumulativeGasUsed": "0xb8239",
      "logs": [
        {
          "address": "0xcbfbfa0abf8e300d3fd7b7c9f316054101278d2b",
          "topics": [
            "0x8c5be1e5ebec7d5bd14f71427d1e84f3dd0314c0f7b2291e5b200ac8c7c3b925",
            "0x00000000000000000000000098a612349b056ca14d64d8fffece02872c42110f",
            "0x000000000000000000000000fd35bf63448595377d5bc2fcb435239ba2afb3ea",
            "0x0000000000000000000000000000000000000000000000000000000000000001"
          ],
          "data": "0x",
          "blockHash": "0xc51c1cc00499cd47dc095caec572783406ccbef4ae73517776f4c182d92010c2",
          "blockNumber": "0x20b4451",
          "blockTimestamp": "0x6929e782",
          "transactionHash": "0x0c2a4bfe9b977c0d4be5cf08aaa94f89b13d88a328e4ac6ffc45c5202a071ac4",
          "transactionIndex": "0x6",
          "logIndex": "0x10",
          "removed": false
        }
      ],
      "logsBloom": "0x00000000000000000000040000000000000000000000000000000000000000000800000000000000000000080000000000000000000000000100000000240000002000000000000000000000002000000000000000040000020000000000000000000000000000000000000000000000000000000000000000000000000000000000000000000000000000000000000000000000000000000000000000000000020000000000000000000000000000000000000000000000000000000000000000000000000000000000000000000000000000000000000800000000000040000010000000000000000000000000000000000000000000000000000000000100",
      "type": "0x2",
      "transactionHash": "0x0c2a4bfe9b977c0d4be5cf08aaa94f89b13d88a328e4ac6ffc45c5202a071ac4",
      "transactionIndex": "0x6",
      "blockHash": "0xc51c1cc00499cd47dc095caec572783406ccbef4ae73517776f4c182d92010c2",
      "blockNumber": "0x20b4451",
      "gasUsed": "0xbcd4",
      "effectiveGasPrice": "0x6aa03",
      "blobGasUsed": "0x79e0",
      "from": "0x98a612349b056ca14d64d8fffece02872c42110f",
      "to": "0xcbfbfa0abf8e300d3fd7b7c9f316054101278d2b",
      "contractAddress": null,
      "daFootprintGasScalar": "0x138",
      "l1BaseFeeScalar": "0x44d",
      "l1BlobBaseFee": "0x2",
      "l1BlobBaseFeeScalar": "0xa118b",
      "l1Fee": "0x246",
      "l1GasPrice": "0x100",
      "l1GasUsed": "0x640"
    },
    {
      "status": "0x1",
      "cumulativeGasUsed": "0xf3dec",
      "logs": [
        {
          "address": "0xcbfbfa0abf8e300d3fd7b7c9f316054101278d2b",
          "topics": [
            "0xddf252ad1be2c89b69c2b068fc378daa952ba7f163c4a11628f55a4df523b3ef",
            "0x00000000000000000000000098a612349b056ca14d64d8fffece02872c42110f",
            "0x000000000000000000000000fd35bf63448595377d5bc2fcb435239ba2afb3ea",
            "0x0000000000000000000000000000000000000000000000000000000000000001"
          ],
          "data": "0x",
          "blockHash": "0xc51c1cc00499cd47dc095caec572783406ccbef4ae73517776f4c182d92010c2",
          "blockNumber": "0x20b4451",
          "blockTimestamp": "0x6929e782",
          "transactionHash": "0xd813d66dff15b319f9b4cccf067fd6da11ae437cff8adb6af6a379a07dff1c3b",
          "transactionIndex": "0x7",
          "logIndex": "0x11",
          "removed": false
        },
        {
          "address": "0xfd35bf63448595377d5bc2fcb435239ba2afb3ea",
          "topics": [
            "0xa677084ea9aea69b2640d875bae622e3cf9d7c163f52d2f9d81daa1ed072c985",
            "0x0000000000000000000000000000000000000000000000000000000000000001"
          ],
          "data": "0x00000000000000000000000000000000000000000000000000000000000000000000000000000000000000000000000000000000000000000000000000000000000000000000000000000000000000000000000000000000000000000000000200000000000000000000000000000000000000000000000000000000000000010000000000000000000000000000000000000000000000000000000000000001000000000000000000000000000000000000000000000000000000006929e7ee00000000000000000000000000000000000000000000000000000000693321f6000000000000000000000000000000000000000000000000002386f26fc100000000000000000000000000000000000000000000000000000000000000000000000000000000000000000000000000000000000000000000000000000000000000000000000000000000000000000000000000000000000000000000000000000000000000000000000000000000000000000000000000000000000000000000",
          "blockHash": "0xc51c1cc00499cd47dc095caec572783406ccbef4ae73517776f4c182d92010c2",
          "blockNumber": "0x20b4451",
          "blockTimestamp": "0x6929e782",
          "transactionHash": "0xd813d66dff15b319f9b4cccf067fd6da11ae437cff8adb6af6a379a07dff1c3b",
          "transactionIndex": "0x7",
          "logIndex": "0x12",
          "removed": false
        },
        {
          "address": "0xfd35bf63448595377d5bc2fcb435239ba2afb3ea",
          "topics": [
            "0xc43fa59bf811b406292f853c5888b214b0e868c12884ca93b4956648caa6938a",
            "0x0000000000000000000000000000000000000000000000000000000000000001"
          ],
          "data": "0x0000000000000000000000000000000000000000000000000000000000000001000000000000000000000000cbfbfa0abf8e300d3fd7b7c9f316054101278d2b00000000000000000000000000000000000000000000000000000000000000010000000000000000000000000000000000000000000000000000000000000000",
          "blockHash": "0xc51c1cc00499cd47dc095caec572783406ccbef4ae73517776f4c182d92010c2",
          "blockNumber": "0x20b4451",
          "blockTimestamp": "0x6929e782",
          "transactionHash": "0xd813d66dff15b319f9b4cccf067fd6da11ae437cff8adb6af6a379a07dff1c3b",
          "transactionIndex": "0x7",
          "logIndex": "0x13",
          "removed": false
        }
      ],
      "logsBloom": "0x00000000000000000000040000000000000000000000000000000000000000000800000000000000000000080800000000000000000000000100000000040000002000000000000000000008002000000000000000040000020000000000000000000000000000000100000000000000000000000000000008000010000100000000000000000200000000000000000000000000000000000000000000000000000000000000000000000000000000000000000000000000000020000000000000000002000002000000000000000000000000000000000800000000000040000000000000000000400000000000002000000000000000000000000000000100",
      "type": "0x2",
      "transactionHash": "0xd813d66dff15b319f9b4cccf067fd6da11ae437cff8adb6af6a379a07dff1c3b",
      "transactionIndex": "0x7",
      "blockHash": "0xc51c1cc00499cd47dc095caec572783406ccbef4ae73517776f4c182d92010c2",
      "blockNumber": "0x20b4451",
      "gasUsed": "0x3bbb3",
      "effectiveGasPrice": "0x6aa03",
      "blobGasUsed": "0xb0b8",
      "from": "0x98a612349b056ca14d64d8fffece02872c42110f",
      "to": "0xfd35bf63448595377d5bc2fcb435239ba2afb3ea",
      "contractAddress": null,
      "daFootprintGasScalar": "0x138",
      "l1BaseFeeScalar": "0x44d",
      "l1BlobBaseFee": "0x2",
      "l1BlobBaseFeeScalar": "0xa118b",
      "l1Fee": "0x350",
      "l1GasPrice": "0x100",
      "l1GasUsed": "0x91a"
    },
    {
      "status": "0x1",
      "cumulativeGasUsed": "0xffac0",
      "logs": [
        {
          "address": "0xcbfbfa0abf8e300d3fd7b7c9f316054101278d2b",
          "topics": [
            "0x8c5be1e5ebec7d5bd14f71427d1e84f3dd0314c0f7b2291e5b200ac8c7c3b925",
            "0x00000000000000000000000098a612349b056ca14d64d8fffece02872c42110f",
            "0x000000000000000000000000fd35bf63448595377d5bc2fcb435239ba2afb3ea",
            "0x0000000000000000000000000000000000000000000000000000000000000002"
          ],
          "data": "0x",
          "blockHash": "0xc51c1cc00499cd47dc095caec572783406ccbef4ae73517776f4c182d92010c2",
          "blockNumber": "0x20b4451",
          "blockTimestamp": "0x6929e782",
          "transactionHash": "0x211f5cfed74ae620878a1fdd64566310d3f6051cac26abe1d8a63aad41584c71",
          "transactionIndex": "0x8",
          "logIndex": "0x14",
          "removed": false
        }
      ],
      "logsBloom": "0x04000000000000000000040000000000000000000000000000000000000000000800000000000000000000080000000000000000000000000100000000200000002000000000000000000000002000000000000000000000020000000000000000000000000000000000000000000000000000000000000000000000000000000000000000000000000000000000000000000000000000000000000000000000020000000000000000000100000000000000000000000000000000000000000000000000000000000000000000000000000000000000000800000000000000000010000000000000000000000000000000000000008000000000000000000100",
      "type": "0x2",
      "transactionHash": "0x211f5cfed74ae620878a1fdd64566310d3f6051cac26abe1d8a63aad41584c71",
      "transactionIndex": "0x8",
      "blockHash": "0xc51c1cc00499cd47dc095caec572783406ccbef4ae73517776f4c182d92010c2",
      "blockNumber": "0x20b4451",
      "gasUsed": "0xbcd4",
      "effectiveGasPrice": "0x6aa03",
      "blobGasUsed": "0x79e0",
      "from": "0x98a612349b056ca14d64d8fffece02872c42110f",
      "to": "0xcbfbfa0abf8e300d3fd7b7c9f316054101278d2b",
      "contractAddress": null,
      "daFootprintGasScalar": "0x138",
      "l1BaseFeeScalar": "0x44d",
      "l1BlobBaseFee": "0x2",
      "l1BlobBaseFeeScalar": "0xa118b",
      "l1Fee": "0x246",
      "l1GasPrice": "0x100",
      "l1GasUsed": "0x640"
    },
    {
      "status": "0x1",
      "cumulativeGasUsed": "0x135ff8",
      "logs": [
        {
          "address": "0xcbfbfa0abf8e300d3fd7b7c9f316054101278d2b",
          "topics": [
            "0xddf252ad1be2c89b69c2b068fc378daa952ba7f163c4a11628f55a4df523b3ef",
            "0x00000000000000000000000098a612349b056ca14d64d8fffece02872c42110f",
            "0x000000000000000000000000fd35bf63448595377d5bc2fcb435239ba2afb3ea",
            "0x0000000000000000000000000000000000000000000000000000000000000002"
          ],
          "data": "0x",
          "blockHash": "0xc51c1cc00499cd47dc095caec572783406ccbef4ae73517776f4c182d92010c2",
          "blockNumber": "0x20b4451",
          "blockTimestamp": "0x6929e782",
          "transactionHash": "0xc6de4da64842be7cd5d99130ba695ecd045495743513bb5ef2def4e1ec58badf",
          "transactionIndex": "0x9",
          "logIndex": "0x15",
          "removed": false
        },
        {
          "address": "0xfd35bf63448595377d5bc2fcb435239ba2afb3ea",
          "topics": [
            "0xa677084ea9aea69b2640d875bae622e3cf9d7c163f52d2f9d81daa1ed072c985",
            "0x0000000000000000000000000000000000000000000000000000000000000002"
          ],
          "data": "0x00000000000000000000000000000000000000000000000000000000000000000000000000000000000000000000000000000000000000000000000000000000000000000000000000000000000000000000000000000000000000000000000100000000000000000000000000000000000000000000000000000000000000010000000000000000000000000000000000000000000000000000000000000001000000000000000000000000000000000000000000000000000000006929e7ee000000000000000000000000000000000000000000000000000000006929e9ce0000000000000000000000000000000000000000000000000011c37937e08000000000000000000000000000000000000000000000000000000000000000003c00000000000000000000000000000000000000000000000000000000000001f400000000000000000000000000000000000000000000000000000000000000000000000000000000000000000000000000000000000000000000000000000000",
          "blockHash": "0xc51c1cc00499cd47dc095caec572783406ccbef4ae73517776f4c182d92010c2",
          "blockNumber": "0x20b4451",
          "blockTimestamp": "0x6929e782",
          "transactionHash": "0xc6de4da64842be7cd5d99130ba695ecd045495743513bb5ef2def4e1ec58badf",
          "transactionIndex": "0x9",
          "logIndex": "0x16",
          "removed": false
        },
        {
          "address": "0xfd35bf63448595377d5bc2fcb435239ba2afb3ea",
          "topics": [
            "0xc43fa59bf811b406292f853c5888b214b0e868c12884ca93b4956648caa6938a",
            "0x0000000000000000000000000000000000000000000000000000000000000002"
          ],
          "data": "0x0000000000000000000000000000000000000000000000000000000000000002000000000000000000000000cbfbfa0abf8e300d3fd7b7c9f316054101278d2b00000000000000000000000000000000000000000000000000000000000000010000000000000000000000000000000000000000000000000000000000000000",
          "blockHash": "0xc51c1cc00499cd47dc095caec572783406ccbef4ae73517776f4c182d92010c2",
          "blockNumber": "0x20b4451",
          "blockTimestamp": "0x6929e782",
          "transactionHash": "0xc6de4da64842be7cd5d99130ba695ecd045495743513bb5ef2def4e1ec58badf",
          "transactionIndex": "0x9",
          "logIndex": "0x17",
          "removed": false
        }
      ],
      "logsBloom": "0x04000000000000000000040000000000000000000000000000000000000000000800000000000000000000080800000000000000000000000100000000000000002000000000000000000008002000000000000000000000020000000000000000000000000000000100000000000000000000000000000008000010000100000000000000000200000000000000000000000000000000000000000000000000000000000000000000000100000000000000000000000000000020000000000000000002000002000000000000000000000000000000000800000000000000000000000000000000400000000000002000000000008000000000000000000100",
      "type": "0x2",
      "transactionHash": "0xc6de4da64842be7cd5d99130ba695ecd045495743513bb5ef2def4e1ec58badf",
      "transactionIndex": "0x9",
      "blockHash": "0xc51c1cc00499cd47dc095caec572783406ccbef4ae73517776f4c182d92010c2",
      "blockNumber": "0x20b4451",
      "gasUsed": "0x36538",
      "effectiveGasPrice": "0x6aa03",
      "blobGasUsed": "0xbce8",
      "from": "0x98a612349b056ca14d64d8fffece02872c42110f",
      "to": "0xfd35bf63448595377d5bc2fcb435239ba2afb3ea",
      "contractAddress": null,
      "daFootprintGasScalar": "0x138",
      "l1BaseFeeScalar": "0x44d",
      "l1BlobBaseFee": "0x2",
      "l1BlobBaseFeeScalar": "0xa118b",
      "l1Fee": "0x38b",
      "l1GasPrice": "0x100",
      "l1GasUsed": "0x9ba"
    }
  ],
  "libraries": [],
  "pending": [],
  "returns": {},
  "timestamp": 1764353921828,
  "chain": 84532,
  "commit": "3af7981"
}