{
  "transactions": [
    {
      "hash": "0xfdacb0a82476c088cf78f2d330f921e0c082cb658b02b6d7da99904a1a95537b",
      "transactionType": "CALL",
      "contractName": null,
      "contractAddress": "0x5336a0c2476eadce32c7f3c58be809c700e4db2e",
      "function": "finalize(uint40)",
      "arguments": [
        "2"
      ],
      "transaction": {
        "from": "0x98a612349b056ca14d64d8fffece02872c42110f",
        "to": "0x5336a0c2476eadce32c7f3c58be809c700e4db2e",
        "gas": "0x26a0f",
        "value": "0x0",
        "input": "0x90dbbe860000000000000000000000000000000000000000000000000000000000000002",
        "nonce": "0xd",
        "chainId": "0x14a34"
      },
      "additionalContracts": [],
      "isFixedGasLimit": false
    }
  ],
  "receipts": [
    {
      "status": "0x1",
      "cumulativeGasUsed": "0x9ccd76",
      "logs": [
        {
          "address": "0x843ae43b40c8370dffc29ff87be38953f8bbaaec",
          "topics": [
            "0xddf252ad1be2c89b69c2b068fc378daa952ba7f163c4a11628f55a4df523b3ef",
            "0x0000000000000000000000005336a0c2476eadce32c7f3c58be809c700e4db2e",
            "0x0000000000000000000000006da173b1d50f7bc5c686f8880c20378965408344",
            "0x0000000000000000000000000000000000000000000000000000000000000002"
          ],
          "data": "0x",
          "blockHash": "0xa744dca77cddef58862626ee7192a3a421af424b8f39fe1f1222b4de4d0f3078",
          "blockNumber": "0x20b58d5",
          "blockTimestamp": "0x692a108a",
          "transactionHash": "0xfdacb0a82476c088cf78f2d330f921e0c082cb658b02b6d7da99904a1a95537b",
          "transactionIndex": "0x35",
          "logIndex": "0x65",
          "removed": false
        },
        {
          "address": "0x5336a0c2476eadce32c7f3c58be809c700e4db2e",
          "topics": [
            "0x7a64269d6d03ead41925c75675255493546f656ebb9cae4158fea2633d86c541",
            "0x0000000000000000000000000000000000000000000000000000000000000002"
          ],
          "data": "0x",
          "blockHash": "0xa744dca77cddef58862626ee7192a3a421af424b8f39fe1f1222b4de4d0f3078",
          "blockNumber": "0x20b58d5",
          "blockTimestamp": "0x692a108a",
          "transactionHash": "0xfdacb0a82476c088cf78f2d330f921e0c082cb658b02b6d7da99904a1a95537b",
          "transactionIndex": "0x35",
          "logIndex": "0x66",
          "removed": false
        }
      ],
      "logsBloom": "0x04000000000000000000000000400000000000000000000000000000000000000000000000000000000000000000000000000000000000000200000000002000000000000000000000000008000000000000000000000000000000000000000000000000000000000000000000000000000000020000000000000010000000000000000000000000000000000010000000000000000000000000000000000000000000000000000000000100000000000000000040000000008000000200000000000002000000080000000000000000000000400000000000000000000000000000000000000000000400000000000000020000018000040000000000000100",
      "type": "0x2",
      "transactionHash": "0xfdacb0a82476c088cf78f2d330f921e0c082cb658b02b6d7da99904a1a95537b",
      "transactionIndex": "0x35",
      "blockHash": "0xa744dca77cddef58862626ee7192a3a421af424b8f39fe1f1222b4de4d0f3078",
      "blockNumber": "0x20b58d5",
      "gasUsed": "0x1bf77",
      "effectiveGasPrice": "0x60bbd",
      "blobGasUsed": "0x79e0",
      "from": "0x98a612349b056ca14d64d8fffece02872c42110f",
      "to": "0x5336a0c2476eadce32c7f3c58be809c700e4db2e",
      "contractAddress": null,
      "daFootprintGasScalar": "0x138",
      "l1BaseFeeScalar": "0x44d",
      "l1BlobBaseFee": "0x1",
      "l1BlobBaseFeeScalar": "0xa118b",
      "l1Fee": "0x51",
      "l1GasPrice": "0x9",
      "l1GasUsed": "0x640"
    }
  ],
  "libraries": [],
  "pending": [],
  "returns": {},
  "timestamp": 1764364425157,
  "chain": 84532,
  "commit": "3af7981"
}